{
  "contractName": "Insurance",
  "abi": [
    {
      "inputs": [],
      "stateMutability": "nonpayable",
      "type": "constructor"
    },
    {
      "anonymous": false,
      "inputs": [
        {
          "indexed": false,
          "internalType": "string",
          "name": "firstName",
          "type": "string"
        },
        {
          "indexed": false,
          "internalType": "string",
          "name": "lastName",
          "type": "string"
        },
        {
          "indexed": false,
          "internalType": "string",
          "name": "dob",
          "type": "string"
        }
      ],
      "name": "InsuredCreated",
      "type": "event"
    },
    {
      "anonymous": false,
      "inputs": [
        {
          "indexed": false,
          "internalType": "uint256",
          "name": "policyNumber",
          "type": "uint256"
        },
        {
          "indexed": false,
          "internalType": "uint256",
          "name": "insuredId",
          "type": "uint256"
        },
        {
          "indexed": false,
          "internalType": "uint256",
          "name": "vehicleId",
          "type": "uint256"
        },
        {
          "indexed": false,
          "internalType": "uint256",
          "name": "driverId",
          "type": "uint256"
        },
        {
          "indexed": false,
          "internalType": "string",
          "name": "liability",
          "type": "string"
        },
        {
          "indexed": false,
          "internalType": "string",
          "name": "comprehensive",
          "type": "string"
        },
        {
          "indexed": false,
          "internalType": "string",
          "name": "collision",
          "type": "string"
        },
        {
          "indexed": false,
          "internalType": "uint256",
          "name": "coverage",
          "type": "uint256"
        },
        {
          "indexed": false,
          "internalType": "string",
          "name": "effectiveDate",
          "type": "string"
        },
        {
          "indexed": false,
          "internalType": "string",
          "name": "polTerm",
          "type": "string"
        }
      ],
      "name": "PolicyCreated",
      "type": "event"
    },
    {
      "inputs": [],
      "name": "driverIdCounter",
      "outputs": [
        {
          "internalType": "uint256",
          "name": "",
          "type": "uint256"
        }
      ],
      "stateMutability": "view",
      "type": "function",
      "constant": true
    },
    {
      "inputs": [
        {
          "internalType": "uint256",
          "name": "",
          "type": "uint256"
        }
      ],
      "name": "drivers",
      "outputs": [
        {
          "internalType": "string",
          "name": "license",
          "type": "string"
        },
        {
          "internalType": "string",
          "name": "ageLicensed",
          "type": "string"
        }
      ],
      "stateMutability": "view",
      "type": "function",
      "constant": true
    },
    {
      "inputs": [
        {
          "internalType": "uint256",
          "name": "",
          "type": "uint256"
        }
      ],
      "name": "insured",
      "outputs": [
        {
          "internalType": "string",
          "name": "firstName",
          "type": "string"
        },
        {
          "internalType": "string",
          "name": "lastName",
          "type": "string"
        },
        {
          "internalType": "string",
          "name": "dob",
          "type": "string"
        }
      ],
      "stateMutability": "view",
      "type": "function",
      "constant": true
    },
    {
      "inputs": [],
      "name": "insuredIdCounter",
      "outputs": [
        {
          "internalType": "uint256",
          "name": "",
          "type": "uint256"
        }
      ],
      "stateMutability": "view",
      "type": "function",
      "constant": true
    },
    {
      "inputs": [
        {
          "internalType": "string",
          "name": "",
          "type": "string"
        }
      ],
      "name": "polDetails",
      "outputs": [
        {
          "internalType": "string",
          "name": "",
          "type": "string"
        }
      ],
      "stateMutability": "view",
      "type": "function",
      "constant": true
    },
    {
      "inputs": [
        {
          "internalType": "uint256",
          "name": "",
          "type": "uint256"
        }
      ],
      "name": "policies",
      "outputs": [
        {
          "internalType": "uint256",
          "name": "insuredId",
          "type": "uint256"
        },
        {
          "internalType": "uint256",
          "name": "vehicleId",
          "type": "uint256"
        },
        {
          "internalType": "uint256",
          "name": "driverId",
          "type": "uint256"
        },
        {
          "components": [
            {
              "internalType": "string",
              "name": "liability",
              "type": "string"
            },
            {
              "internalType": "string",
              "name": "comprehensive",
              "type": "string"
            },
            {
              "internalType": "string",
              "name": "collision",
              "type": "string"
            },
            {
              "internalType": "uint256",
              "name": "coverage",
              "type": "uint256"
            }
          ],
          "internalType": "struct Insurance.Coverage",
          "name": "coverage",
          "type": "tuple"
        },
        {
          "internalType": "string",
          "name": "effectiveDate",
          "type": "string"
        },
        {
          "internalType": "string",
          "name": "polTerm",
          "type": "string"
        },
        {
          "internalType": "bool",
          "name": "isActive",
          "type": "bool"
        }
      ],
      "stateMutability": "view",
      "type": "function",
      "constant": true
    },
    {
      "inputs": [],
      "name": "policyNumber",
      "outputs": [
        {
          "internalType": "uint256",
          "name": "",
          "type": "uint256"
        }
      ],
      "stateMutability": "view",
      "type": "function",
      "constant": true
    },
    {
      "inputs": [],
      "name": "testReturn",
      "outputs": [
        {
          "internalType": "string",
          "name": "",
          "type": "string"
        }
      ],
      "stateMutability": "view",
      "type": "function",
      "constant": true
    },
    {
      "inputs": [],
      "name": "vehicleIdCounter",
      "outputs": [
        {
          "internalType": "uint256",
          "name": "",
          "type": "uint256"
        }
      ],
      "stateMutability": "view",
      "type": "function",
      "constant": true
    },
    {
      "inputs": [
        {
          "internalType": "uint256",
          "name": "",
          "type": "uint256"
        }
      ],
      "name": "vehicles",
      "outputs": [
        {
          "internalType": "string",
          "name": "vehType",
          "type": "string"
        },
        {
          "internalType": "string",
          "name": "vin",
          "type": "string"
        },
        {
          "internalType": "string",
          "name": "annualMileage",
          "type": "string"
        }
      ],
      "stateMutability": "view",
      "type": "function",
      "constant": true
    },
    {
      "inputs": [
        {
          "internalType": "string",
          "name": "_firstName",
          "type": "string"
        },
        {
          "internalType": "string",
          "name": "_lastName",
          "type": "string"
        },
        {
          "internalType": "string",
          "name": "_dob",
          "type": "string"
        }
      ],
      "name": "createInsured",
      "outputs": [
        {
          "internalType": "uint256",
          "name": "",
          "type": "uint256"
        }
      ],
      "stateMutability": "nonpayable",
      "type": "function"
    },
    {
      "inputs": [
        {
          "internalType": "string",
          "name": "_vType",
          "type": "string"
        },
        {
          "internalType": "string",
          "name": "_vin",
          "type": "string"
        },
        {
          "internalType": "string",
          "name": "_mileage",
          "type": "string"
        }
      ],
      "name": "createVehicle",
      "outputs": [
        {
          "internalType": "uint256",
          "name": "",
          "type": "uint256"
        }
      ],
      "stateMutability": "nonpayable",
      "type": "function"
    },
    {
      "inputs": [
        {
          "internalType": "string",
          "name": "_licenseNum",
          "type": "string"
        },
        {
          "internalType": "string",
          "name": "_ageLicensed",
          "type": "string"
        }
      ],
      "name": "createDriver",
      "outputs": [
        {
          "internalType": "uint256",
          "name": "",
          "type": "uint256"
        }
      ],
      "stateMutability": "nonpayable",
      "type": "function"
    },
    {
      "inputs": [
        {
          "internalType": "uint256",
          "name": "_insuredId",
          "type": "uint256"
        },
        {
          "internalType": "uint256",
          "name": "_vehicleId",
          "type": "uint256"
        },
        {
          "internalType": "uint256",
          "name": "_driverId",
          "type": "uint256"
        },
        {
          "internalType": "string",
          "name": "_liability",
          "type": "string"
        },
        {
          "internalType": "string",
          "name": "_comprehensive",
          "type": "string"
        },
        {
          "internalType": "string",
          "name": "_collision",
          "type": "string"
        },
        {
          "internalType": "uint256",
          "name": "_coverage",
          "type": "uint256"
        },
        {
          "internalType": "string",
          "name": "_effectiveDate",
          "type": "string"
        },
        {
          "internalType": "string",
          "name": "_polterm",
          "type": "string"
        }
      ],
      "name": "createPolicy",
      "outputs": [
        {
          "internalType": "uint256",
          "name": "",
          "type": "uint256"
        }
      ],
      "stateMutability": "nonpayable",
      "type": "function"
    },
    {
      "inputs": [
        {
          "internalType": "uint256",
          "name": "_policyNumber",
          "type": "uint256"
        }
      ],
      "name": "getPolicy",
      "outputs": [
        {
          "internalType": "uint256",
          "name": "insuredId",
          "type": "uint256"
        },
        {
          "internalType": "uint256",
          "name": "vehicleId",
          "type": "uint256"
        },
        {
          "internalType": "uint256",
          "name": "driverId",
          "type": "uint256"
        },
        {
          "internalType": "string",
          "name": "liability",
          "type": "string"
        },
        {
          "internalType": "string",
          "name": "comprehensive",
          "type": "string"
        },
        {
          "internalType": "string",
          "name": "collision",
          "type": "string"
        },
        {
          "internalType": "uint256",
          "name": "coverage",
          "type": "uint256"
        },
        {
          "internalType": "string",
          "name": "effectiveDate",
          "type": "string"
        },
        {
          "internalType": "string",
          "name": "polTerm",
          "type": "string"
        },
        {
          "internalType": "bool",
          "name": "isActive",
          "type": "bool"
        }
      ],
      "stateMutability": "view",
      "type": "function",
      "constant": true
    },
    {
      "inputs": [
        {
          "internalType": "uint256",
          "name": "insuredId",
          "type": "uint256"
        }
      ],
      "name": "getInsured",
      "outputs": [
        {
          "internalType": "string",
          "name": "firstName",
          "type": "string"
        },
        {
          "internalType": "string",
          "name": "lastName",
          "type": "string"
        },
        {
          "internalType": "string",
          "name": "dob",
          "type": "string"
        }
      ],
      "stateMutability": "view",
      "type": "function",
      "constant": true
    },
    {
      "inputs": [
        {
          "internalType": "uint256",
          "name": "vehicleId",
          "type": "uint256"
        }
      ],
      "name": "getVehicleDetails",
      "outputs": [
        {
          "internalType": "string",
          "name": "vehType",
          "type": "string"
        },
        {
          "internalType": "string",
          "name": "vin",
          "type": "string"
        },
        {
          "internalType": "string",
          "name": "mileage",
          "type": "string"
        }
      ],
      "stateMutability": "view",
      "type": "function",
      "constant": true
    },
    {
      "inputs": [
        {
          "internalType": "uint256",
          "name": "driverId",
          "type": "uint256"
        }
      ],
      "name": "getDriverDetails",
      "outputs": [
        {
          "internalType": "string",
          "name": "licenseNum",
          "type": "string"
        },
        {
          "internalType": "string",
          "name": "ageLicensed",
          "type": "string"
        }
      ],
      "stateMutability": "view",
      "type": "function",
      "constant": true
    },
    {
      "inputs": [
        {
          "internalType": "uint256",
          "name": "_policyNumber",
          "type": "uint256"
        },
        {
          "internalType": "string",
          "name": "_modifyData",
          "type": "string"
        }
      ],
      "name": "modifyPolicy",
      "outputs": [],
      "stateMutability": "nonpayable",
      "type": "function"
    },
    {
      "inputs": [
        {
          "internalType": "string",
          "name": "str",
          "type": "string"
        }
      ],
      "name": "stringToUint",
      "outputs": [
        {
          "internalType": "uint256",
          "name": "",
          "type": "uint256"
        }
      ],
      "stateMutability": "pure",
      "type": "function",
      "constant": true
    }
  ],
  "bytecode": "0x608060405234801561001057600080fd5b50620f423f600081905550600060018190555060006002819055506000600381905550614704806100426000396000f3fe608060405234801561001057600080fd5b506004361061012c5760003560e01c806399066b84116100ad578063d3e8948311610071578063d3e89483146103c9578063e13a7716146103ff578063e2ebec7f1461041d578063f73a44201461044f578063f79e54501461046b5761012c565b806399066b841461030c578063a9eff1031461032a578063b8ba95fa1461035b578063be59a55d1461038d578063c4e4f002146103ab5761012c565b80632b07fce3116100f45780632b07fce3146102255780633c72b57a1461025e5780636b398aea1461027c5780639161cae1146102ac5780639841edb8146102dc5761012c565b806301660e5d1461013157806304314f49146101615780631204ca351461019357806316cb4a05146101c35780631bd95155146101f5575b600080fd5b61014b600480360381019061014691906133ff565b61049c565b6040516101589190613deb565b60405180910390f35b61017b60048036038101906101769190613496565b61054c565b60405161018a93929190613cff565b60405180910390f35b6101ad60048036038101906101a89190613513565b610770565b6040516101ba9190613deb565b60405180910390f35b6101dd60048036038101906101d89190613496565b610937565b6040516101ec93929190613cff565b60405180910390f35b61020f600480360381019061020a9190613352565b610af9565b60405161021c9190613deb565b60405180910390f35b61023f600480360381019061023a9190613496565b610ceb565b6040516102559a99989796959493929190613e06565b60405180910390f35b61026661107d565b6040516102739190613deb565b60405180910390f35b610296600480360381019061029191906133ff565b611083565b6040516102a39190613deb565b60405180910390f35b6102c660048036038101906102c19190613393565b61116e565b6040516102d39190613deb565b60405180910390f35b6102f660048036038101906102f19190613352565b6111fa565b6040516103039190613ca6565b60405180910390f35b6103146112b0565b6040516103219190613deb565b60405180910390f35b610344600480360381019061033f9190613496565b6112b6565b604051610352929190613cc8565b60405180910390f35b61037560048036038101906103709190613496565b611447565b60405161038493929190613cff565b60405180910390f35b610395611609565b6040516103a29190613deb565b60405180910390f35b6103b361160f565b6040516103c09190613deb565b60405180910390f35b6103e360048036038101906103de9190613496565b611615565b6040516103f69796959493929190613ec5565b60405180910390f35b61040761193e565b6040516104149190613ca6565b60405180910390f35b61043760048036038101906104329190613496565b6119cc565b60405161044693929190613cff565b60405180910390f35b610469600480360381019061046491906134bf565b611bf0565b005b61048560048036038101906104809190613496565b612b8a565b604051610493929190613cc8565b60405180910390f35b6000600260008154809291906104b19061424a565b919050555060405180606001604052808581526020018481526020018381525060056000600254815260200190815260200160002060008201518160000190805190602001906105029291906131a5565b50602082015181600101908051906020019061051f9291906131a5565b50604082015181600201908051906020019061053c9291906131a5565b5090505060025490509392505050565b606080606060006005600086815260200190815260200160002090506000816001018054610579906141e7565b9050116105bb576040517f08c379a00000000000000000000000000000000000000000000000000000000081526004016105b290613d8b565b60405180910390fd5b8060000180546105ca906141e7565b80601f01602080910402602001604051908101604052809291908181526020018280546105f6906141e7565b80156106435780601f1061061857610100808354040283529160200191610643565b820191906000526020600020905b81548152906001019060200180831161062657829003601f168201915b50505050509350806001018054610659906141e7565b80601f0160208091040260200160405190810160405280929190818152602001828054610685906141e7565b80156106d25780601f106106a7576101008083540402835291602001916106d2565b820191906000526020600020905b8154815290600101906020018083116106b557829003601f168201915b505050505092508060020180546106e8906141e7565b80601f0160208091040260200160405190810160405280929190818152602001828054610714906141e7565b80156107615780601f1061073657610100808354040283529160200191610761565b820191906000526020600020905b81548152906001019060200180831161074457829003601f168201915b50505050509150509193909250565b60008060008154809291906107849061424a565b91905055506040518060e001604052808b81526020018a815260200189815260200160405180608001604052808a815260200189815260200188815260200187815250815260200184815260200183815260200160011515815250600760008054815260200190815260200160002060008201518160000155602082015181600101556040820151816002015560608201518160030160008201518160000190805190602001906108369291906131a5565b5060208201518160010190805190602001906108539291906131a5565b5060408201518160020190805190602001906108709291906131a5565b5060608201518160030155505060808201518160070190805190602001906108999291906131a5565b5060a08201518160080190805190602001906108b69291906131a5565b5060c08201518160090160006101000a81548160ff0219169083151502179055509050507fe4817511d1e07d7c9477cac64191c933e5263506703d40ff96cc2e58b11f94546000548b8b8b8b8b8b8b8b8b60405161091d9a99989796959493929190613f49565b60405180910390a160005490509998505050505050505050565b600460205280600052604060002060009150905080600001805461095a906141e7565b80601f0160208091040260200160405190810160405280929190818152602001828054610986906141e7565b80156109d35780601f106109a8576101008083540402835291602001916109d3565b820191906000526020600020905b8154815290600101906020018083116109b657829003601f168201915b5050505050908060010180546109e8906141e7565b80601f0160208091040260200160405190810160405280929190818152602001828054610a14906141e7565b8015610a615780601f10610a3657610100808354040283529160200191610a61565b820191906000526020600020905b815481529060010190602001808311610a4457829003601f168201915b505050505090806002018054610a76906141e7565b80601f0160208091040260200160405190810160405280929190818152602001828054610aa2906141e7565b8015610aef5780601f10610ac457610100808354040283529160200191610aef565b820191906000526020600020905b815481529060010190602001808311610ad257829003601f168201915b5050505050905083565b6000808290506000805b8251811015610ce0577f300000000000000000000000000000000000000000000000000000000000000060f81c60ff16838281518110610b6c577f4e487b7100000000000000000000000000000000000000000000000000000000600052603260045260246000fd5b602001015160f81c60f81b60f81c60ff1610158015610bfa57507f390000000000000000000000000000000000000000000000000000000000000060f81c60ff16838281518110610be6577f4e487b7100000000000000000000000000000000000000000000000000000000600052603260045260246000fd5b602001015160f81c60f81b60f81c60ff1611155b610c39576040517f08c379a0000000000000000000000000000000000000000000000000000000008152600401610c3090613d4b565b60405180910390fd5b7f300000000000000000000000000000000000000000000000000000000000000060f81c60ff16838281518110610c99577f4e487b7100000000000000000000000000000000000000000000000000000000600052603260045260246000fd5b602001015160f81c60f81b60f81c60ff16610cb4919061415b565b600a83610cc19190614101565b610ccb91906140ab565b91508080610cd89061424a565b915050610b03565b508092505050919050565b600080600060608060606000606080600080600760008d815260200190815260200160002090506000816003016000018054610d26906141e7565b905011610d68576040517f08c379a0000000000000000000000000000000000000000000000000000000008152600401610d5f90613d6b565b60405180910390fd5b80600001549a508060010154995080600201549850806003016000018054610d8f906141e7565b80601f0160208091040260200160405190810160405280929190818152602001828054610dbb906141e7565b8015610e085780601f10610ddd57610100808354040283529160200191610e08565b820191906000526020600020905b815481529060010190602001808311610deb57829003601f168201915b50505050509750806003016001018054610e21906141e7565b80601f0160208091040260200160405190810160405280929190818152602001828054610e4d906141e7565b8015610e9a5780601f10610e6f57610100808354040283529160200191610e9a565b820191906000526020600020905b815481529060010190602001808311610e7d57829003601f168201915b50505050509650806003016002018054610eb3906141e7565b80601f0160208091040260200160405190810160405280929190818152602001828054610edf906141e7565b8015610f2c5780601f10610f0157610100808354040283529160200191610f2c565b820191906000526020600020905b815481529060010190602001808311610f0f57829003601f168201915b5050505050955080600301600301549450806007018054610f4c906141e7565b80601f0160208091040260200160405190810160405280929190818152602001828054610f78906141e7565b8015610fc55780601f10610f9a57610100808354040283529160200191610fc5565b820191906000526020600020905b815481529060010190602001808311610fa857829003601f168201915b50505050509350806008018054610fdb906141e7565b80601f0160208091040260200160405190810160405280929190818152602001828054611007906141e7565b80156110545780601f1061102957610100808354040283529160200191611054565b820191906000526020600020905b81548152906001019060200180831161103757829003601f168201915b505050505092508060090160009054906101000a900460ff169150509193959799509193959799565b60025481565b6000600160008154809291906110989061424a565b919050555060405180606001604052808581526020018481526020018381525060046000600154815260200190815260200160002060008201518160000190805190602001906110e99291906131a5565b5060208201518160010190805190602001906111069291906131a5565b5060408201518160020190805190602001906111239291906131a5565b509050507f9efdd03e2af10570631cb4cae5f1130431232a0bc9570da8da044337d116081e84848460405161115a93929190613cff565b60405180910390a160015490509392505050565b6000600360008154809291906111839061424a565b919050555060405180604001604052808481526020018381525060066000600354815260200190815260200160002060008201518160000190805190602001906111ce9291906131a5565b5060208201518160010190805190602001906111eb9291906131a5565b50905050600354905092915050565b600881805160208101820180518482526020830160208501208183528095505050505050600091509050805461122f906141e7565b80601f016020809104026020016040519081016040528092919081815260200182805461125b906141e7565b80156112a85780601f1061127d576101008083540402835291602001916112a8565b820191906000526020600020905b81548152906001019060200180831161128b57829003601f168201915b505050505081565b60005481565b606080600060066000858152602001908152602001600020905060008160000180546112e1906141e7565b905011611323576040517f08c379a000000000000000000000000000000000000000000000000000000000815260040161131a90613dcb565b60405180910390fd5b806000018054611332906141e7565b80601f016020809104026020016040519081016040528092919081815260200182805461135e906141e7565b80156113ab5780601f10611380576101008083540402835291602001916113ab565b820191906000526020600020905b81548152906001019060200180831161138e57829003601f168201915b505050505092508060010180546113c1906141e7565b80601f01602080910402602001604051908101604052809291908181526020018280546113ed906141e7565b801561143a5780601f1061140f5761010080835404028352916020019161143a565b820191906000526020600020905b81548152906001019060200180831161141d57829003601f168201915b5050505050915050915091565b600560205280600052604060002060009150905080600001805461146a906141e7565b80601f0160208091040260200160405190810160405280929190818152602001828054611496906141e7565b80156114e35780601f106114b8576101008083540402835291602001916114e3565b820191906000526020600020905b8154815290600101906020018083116114c657829003601f168201915b5050505050908060010180546114f8906141e7565b80601f0160208091040260200160405190810160405280929190818152602001828054611524906141e7565b80156115715780601f1061154657610100808354040283529160200191611571565b820191906000526020600020905b81548152906001019060200180831161155457829003601f168201915b505050505090806002018054611586906141e7565b80601f01602080910402602001604051908101604052809291908181526020018280546115b2906141e7565b80156115ff5780601f106115d4576101008083540402835291602001916115ff565b820191906000526020600020905b8154815290600101906020018083116115e257829003601f168201915b5050505050905083565b60015481565b60035481565b60076020528060005260406000206000915090508060000154908060010154908060020154908060030160405180608001604052908160008201805461165a906141e7565b80601f0160208091040260200160405190810160405280929190818152602001828054611686906141e7565b80156116d35780601f106116a8576101008083540402835291602001916116d3565b820191906000526020600020905b8154815290600101906020018083116116b657829003601f168201915b505050505081526020016001820180546116ec906141e7565b80601f0160208091040260200160405190810160405280929190818152602001828054611718906141e7565b80156117655780601f1061173a57610100808354040283529160200191611765565b820191906000526020600020905b81548152906001019060200180831161174857829003601f168201915b5050505050815260200160028201805461177e906141e7565b80601f01602080910402602001604051908101604052809291908181526020018280546117aa906141e7565b80156117f75780601f106117cc576101008083540402835291602001916117f7565b820191906000526020600020905b8154815290600101906020018083116117da57829003601f168201915b505050505081526020016003820154815250509080600701805461181a906141e7565b80601f0160208091040260200160405190810160405280929190818152602001828054611846906141e7565b80156118935780601f1061186857610100808354040283529160200191611893565b820191906000526020600020905b81548152906001019060200180831161187657829003601f168201915b5050505050908060080180546118a8906141e7565b80601f01602080910402602001604051908101604052809291908181526020018280546118d4906141e7565b80156119215780601f106118f657610100808354040283529160200191611921565b820191906000526020600020905b81548152906001019060200180831161190457829003601f168201915b5050505050908060090160009054906101000a900460ff16905087565b6009805461194b906141e7565b80601f0160208091040260200160405190810160405280929190818152602001828054611977906141e7565b80156119c45780601f10611999576101008083540402835291602001916119c4565b820191906000526020600020905b8154815290600101906020018083116119a757829003601f168201915b505050505081565b6060806060600060046000868152602001908152602001600020905060008160020180546119f9906141e7565b905011611a3b576040517f08c379a0000000000000000000000000000000000000000000000000000000008152600401611a3290613dab565b60405180910390fd5b806000018054611a4a906141e7565b80601f0160208091040260200160405190810160405280929190818152602001828054611a76906141e7565b8015611ac35780601f10611a9857610100808354040283529160200191611ac3565b820191906000526020600020905b815481529060010190602001808311611aa657829003601f168201915b50505050509350806001018054611ad9906141e7565b80601f0160208091040260200160405190810160405280929190818152602001828054611b05906141e7565b8015611b525780601f10611b2757610100808354040283529160200191611b52565b820191906000526020600020905b815481529060010190602001808311611b3557829003601f168201915b50505050509250806002018054611b68906141e7565b80601f0160208091040260200160405190810160405280929190818152602001828054611b94906141e7565b8015611be15780601f10611bb657610100808354040283529160200191611be1565b820191906000526020600020905b815481529060010190602001808311611bc457829003601f168201915b50505050509150509193909250565b60006007600084815260200190815260200160002090506000816003016000018054611c1b906141e7565b905011611c5d576040517f08c379a0000000000000000000000000000000000000000000000000000000008152600401611c5490613d6b565b60405180910390fd5b6000611c9e836040518060400160405280600181526020017f2c00000000000000000000000000000000000000000000000000000000000000815250612cbe565b905060005b8151811015611df8576000611d2d838381518110611cea577f4e487b7100000000000000000000000000000000000000000000000000000000600052603260045260246000fd5b60200260200101516040518060400160405280600181526020017f3a00000000000000000000000000000000000000000000000000000000000000815250612cbe565b905080600181518110611d69577f4e487b7100000000000000000000000000000000000000000000000000000000600052603260045260246000fd5b6020026020010151600882600081518110611dad577f4e487b7100000000000000000000000000000000000000000000000000000000600052603260045260246000fd5b6020026020010151604051611dc29190613b13565b90815260200160405180910390209080519060200190611de39291906131a5565b50508080611df09061424a565b915050611ca3565b50600060046000846000015481526020019081526020016000209050600060056000856001015481526020019081526020016000209050600060066000866002015481526020019081526020016000209050604051602001611e5990613c91565b604051602081830303815290604052805190602001206008604051611e7d90613c52565b9081526020016040518091039020604051602001611e9b9190613b2a565b6040516020818303038152906040528051906020012014611eef576008604051611ec490613c52565b908152602001604051809103902083600001908054611ee2906141e7565b611eed92919061322b565b505b604051602001611efe90613c91565b604051602081830303815290604052805190602001206008604051611f2290613baa565b9081526020016040518091039020604051602001611f409190613b2a565b6040516020818303038152906040528051906020012014611f94576008604051611f6990613baa565b908152602001604051809103902083600101908054611f87906141e7565b611f9292919061322b565b505b604051602001611fa390613c91565b604051602081830303815290604052805190602001206008604051611fc790613b95565b9081526020016040518091039020604051602001611fe59190613b2a565b604051602081830303815290604052805190602001201461203957600860405161200e90613b95565b90815260200160405180910390208360020190805461202c906141e7565b61203792919061322b565b505b60405160200161204890613c91565b60405160208183030381529060405280519060200120600860405161206c90613b80565b908152602001604051809103902060405160200161208a9190613b2a565b60405160208183030381529060405280519060200120146120de5760086040516120b390613b80565b9081526020016040518091039020826000019080546120d1906141e7565b6120dc92919061322b565b505b6040516020016120ed90613c91565b60405160208183030381529060405280519060200120600860405161211190613c7c565b908152602001604051809103902060405160200161212f9190613b2a565b604051602081830303815290604052805190602001201461218357600860405161215890613c7c565b908152602001604051809103902082600101908054612176906141e7565b61218192919061322b565b505b60405160200161219290613c91565b6040516020818303038152906040528051906020012060086040516121b690613c3d565b90815260200160405180910390206040516020016121d49190613b2a565b60405160208183030381529060405280519060200120146122285760086040516121fd90613c3d565b90815260200160405180910390208260020190805461221b906141e7565b61222692919061322b565b505b60405160200161223790613c91565b60405160208183030381529060405280519060200120600860405161225b90613be9565b90815260200160405180910390206040516020016122799190613b2a565b60405160208183030381529060405280519060200120146122cd5760086040516122a290613be9565b9081526020016040518091039020816000019080546122c0906141e7565b6122cb92919061322b565b505b6040516020016122dc90613c91565b60405160208183030381529060405280519060200120600860405161230090613bfe565b908152602001604051809103902060405160200161231e9190613b2a565b604051602081830303815290604052805190602001201461237257600860405161234790613bfe565b908152602001604051809103902081600101908054612365906141e7565b61237092919061322b565b505b6000600860405161238290613c28565b9081526020016040518091039020805461239b906141e7565b80601f01602080910402602001604051908101604052809291908181526020018280546123c7906141e7565b80156124145780601f106123e957610100808354040283529160200191612414565b820191906000526020600020905b8154815290600101906020018083116123f757829003601f168201915b505050505090506000600860405161242b90613c13565b90815260200160405180910390208054612444906141e7565b80601f0160208091040260200160405190810160405280929190818152602001828054612470906141e7565b80156124bd5780601f10612492576101008083540402835291602001916124bd565b820191906000526020600020905b8154815290600101906020018083116124a057829003601f168201915b505050505090506040516020016124d390613c91565b60405160208183030381529060405280519060200120826040516020016124fa9190613b13565b604051602081830303815290604052805190602001201461252f578187600701908051906020019061252d9291906131a5565b505b60405160200161253e90613c91565b60405160208183030381529060405280519060200120816040516020016125659190613b13565b604051602081830303815290604052805190602001201461259a57808760080190805190602001906125989291906131a5565b505b600060086040516125aa90613bbf565b908152602001604051809103902080546125c3906141e7565b80601f01602080910402602001604051908101604052809291908181526020018280546125ef906141e7565b801561263c5780601f106126115761010080835404028352916020019161263c565b820191906000526020600020905b81548152906001019060200180831161261f57829003601f168201915b505050505090506000600860405161265390613bd4565b9081526020016040518091039020805461266c906141e7565b80601f0160208091040260200160405190810160405280929190818152602001828054612698906141e7565b80156126e55780601f106126ba576101008083540402835291602001916126e5565b820191906000526020600020905b8154815290600101906020018083116126c857829003601f168201915b50505050509050600060086040516126fc90613b6b565b90815260200160405180910390208054612715906141e7565b80601f0160208091040260200160405190810160405280929190818152602001828054612741906141e7565b801561278e5780601f106127635761010080835404028352916020019161278e565b820191906000526020600020905b81548152906001019060200180831161277157829003601f168201915b50505050509050600060086040516127a590613b56565b908152602001604051809103902080546127be906141e7565b80601f01602080910402602001604051908101604052809291908181526020018280546127ea906141e7565b80156128375780601f1061280c57610100808354040283529160200191612837565b820191906000526020600020905b81548152906001019060200180831161281a57829003601f168201915b5050505050905060405160200161284d90613c91565b60405160208183030381529060405280519060200120846040516020016128749190613b13565b60405160208183030381529060405280519060200120146128ac57838b60030160000190805190602001906128aa9291906131a5565b505b6040516020016128bb90613c91565b60405160208183030381529060405280519060200120836040516020016128e29190613b13565b604051602081830303815290604052805190602001201461291a57828b60030160010190805190602001906129189291906131a5565b505b60405160200161292990613c91565b60405160208183030381529060405280519060200120826040516020016129509190613b13565b604051602081830303815290604052805190602001201461298857818b60030160020190805190602001906129869291906131a5565b505b60405160200161299790613c91565b60405160208183030381529060405280519060200120816040516020016129be9190613b13565b60405160208183030381529060405280519060200120146129ee576129e281610af9565b8b600301600301819055505b600060086040516129fe90613b41565b90815260200160405180910390208054612a17906141e7565b80601f0160208091040260200160405190810160405280929190818152602001828054612a43906141e7565b8015612a905780601f10612a6557610100808354040283529160200191612a90565b820191906000526020600020905b815481529060010190602001808311612a7357829003601f168201915b50505050509050604051602001612aa690613c91565b6040516020818303038152906040528051906020012081604051602001612acd9190613b13565b6040516020818303038152906040528051906020012014612b7a57604051602001612af790613c67565b6040516020818303038152906040528051906020012081604051602001612b1e9190613b13565b6040516020818303038152906040528051906020012014612b5b5760008c60090160006101000a81548160ff021916908315150217905550612b79565b60018c60090160006101000a81548160ff0219169083151502179055505b5b5050505050505050505050505050565b6006602052806000526040600020600091509050806000018054612bad906141e7565b80601f0160208091040260200160405190810160405280929190818152602001828054612bd9906141e7565b8015612c265780601f10612bfb57610100808354040283529160200191612c26565b820191906000526020600020905b815481529060010190602001808311612c0957829003601f168201915b505050505090806001018054612c3b906141e7565b80601f0160208091040260200160405190810160405280929190818152602001828054612c67906141e7565b8015612cb45780601f10612c8957610100808354040283529160200191612cb4565b820191906000526020600020905b815481529060010190602001808311612c9757829003601f168201915b5050505050905082565b60606000839050600083905060006001905060005b8351811015612dd15782600081518110612d16577f4e487b7100000000000000000000000000000000000000000000000000000000600052603260045260246000fd5b602001015160f81c60f81b7effffffffffffffffffffffffffffffffffffffffffffffffffffffffffffff1916848281518110612d7c577f4e487b7100000000000000000000000000000000000000000000000000000000600052603260045260246000fd5b602001015160f81c60f81b7effffffffffffffffffffffffffffffffffffffffffffffffffffffffffffff19161415612dbe578180612dba9061424a565b9250505b8080612dc99061424a565b915050612cd3565b5060008167ffffffffffffffff811115612e14577f4e487b7100000000000000000000000000000000000000000000000000000000600052604160045260246000fd5b604051908082528060200260200182016040528015612e4757816020015b6060815260200190600190039081612e325790505b50905060008060005b8651811015612fb85785600081518110612e93577f4e487b7100000000000000000000000000000000000000000000000000000000600052603260045260246000fd5b602001015160f81c60f81b7effffffffffffffffffffffffffffffffffffffffffffffffffffffffffffff1916878281518110612ef9577f4e487b7100000000000000000000000000000000000000000000000000000000600052603260045260246000fd5b602001015160f81c60f81b7effffffffffffffffffffffffffffffffffffffffffffffffffffffffffffff19161415612fa557612f438a84600184612f3e919061415b565b613024565b848381518110612f7c577f4e487b7100000000000000000000000000000000000000000000000000000000600052603260045260246000fd5b6020026020010181905250600181612f9491906140ab565b92508180612fa19061424a565b9250505b8080612fb09061424a565b915050612e50565b50612fd1898360018951612fcc919061415b565b613024565b83828151811061300a577f4e487b7100000000000000000000000000000000000000000000000000000000600052603260045260246000fd5b602002602001018190525082965050505050505092915050565b6060600084905060006001858561303b919061415b565b61304591906140ab565b67ffffffffffffffff811115613084577f4e487b7100000000000000000000000000000000000000000000000000000000600052604160045260246000fd5b6040519080825280601f01601f1916602001820160405280156130b65781602001600182028036833780820191505090505b50905060005b85856130c8919061415b565b8111613198578286826130db91906140ab565b81518110613112577f4e487b7100000000000000000000000000000000000000000000000000000000600052603260045260246000fd5b602001015160f81c60f81b828281518110613156577f4e487b7100000000000000000000000000000000000000000000000000000000600052603260045260246000fd5b60200101907effffffffffffffffffffffffffffffffffffffffffffffffffffffffffffff1916908160001a90535080806131909061424a565b9150506130bc565b5080925050509392505050565b8280546131b1906141e7565b90600052602060002090601f0160209004810192826131d3576000855561321a565b82601f106131ec57805160ff191683800117855561321a565b8280016001018555821561321a579182015b828111156132195782518255916020019190600101906131fe565b5b50905061322791906132b8565b5090565b828054613237906141e7565b90600052602060002090601f01602090048101928261325957600085556132a7565b82601f1061326a57805485556132a7565b828001600101855582156132a757600052602060002091601f016020900482015b828111156132a657825482559160010191906001019061328b565b5b5090506132b491906132b8565b5090565b5b808211156132d15760008160009055506001016132b9565b5090565b60006132e86132e38461402d565b614008565b90508281526020810184848401111561330057600080fd5b61330b8482856141a5565b509392505050565b600082601f83011261332457600080fd5b81356133348482602086016132d5565b91505092915050565b60008135905061334c816146b7565b92915050565b60006020828403121561336457600080fd5b600082013567ffffffffffffffff81111561337e57600080fd5b61338a84828501613313565b91505092915050565b600080604083850312156133a657600080fd5b600083013567ffffffffffffffff8111156133c057600080fd5b6133cc85828601613313565b925050602083013567ffffffffffffffff8111156133e957600080fd5b6133f585828601613313565b9150509250929050565b60008060006060848603121561341457600080fd5b600084013567ffffffffffffffff81111561342e57600080fd5b61343a86828701613313565b935050602084013567ffffffffffffffff81111561345757600080fd5b61346386828701613313565b925050604084013567ffffffffffffffff81111561348057600080fd5b61348c86828701613313565b9150509250925092565b6000602082840312156134a857600080fd5b60006134b68482850161333d565b91505092915050565b600080604083850312156134d257600080fd5b60006134e08582860161333d565b925050602083013567ffffffffffffffff8111156134fd57600080fd5b61350985828601613313565b9150509250929050565b60008060008060008060008060006101208a8c03121561353257600080fd5b60006135408c828d0161333d565b99505060206135518c828d0161333d565b98505060406135628c828d0161333d565b97505060608a013567ffffffffffffffff81111561357f57600080fd5b61358b8c828d01613313565b96505060808a013567ffffffffffffffff8111156135a857600080fd5b6135b48c828d01613313565b95505060a08a013567ffffffffffffffff8111156135d157600080fd5b6135dd8c828d01613313565b94505060c06135ee8c828d0161333d565b93505060e08a013567ffffffffffffffff81111561360b57600080fd5b6136178c828d01613313565b9250506101008a013567ffffffffffffffff81111561363557600080fd5b6136418c828d01613313565b9150509295985092959850929598565b61365a8161418f565b82525050565b600061366b82614073565b613675818561407e565b93506136858185602086016141b4565b61368e81614320565b840191505092915050565b60006136a482614073565b6136ae818561408f565b93506136be8185602086016141b4565b6136c781614320565b840191505092915050565b60006136dd82614073565b6136e781856140a0565b93506136f78185602086016141b4565b80840191505092915050565b60008154613710816141e7565b61371a81866140a0565b94506001821660008114613735576001811461374657613779565b60ff19831686528186019350613779565b61374f8561405e565b60005b8381101561377157815481890152600182019150602081019050613752565b838801955050505b50505092915050565b600061378f601b8361408f565b915061379a82614331565b602082019050919050565b60006137b260168361408f565b91506137bd8261435a565b602082019050919050565b60006137d56008836140a0565b91506137e082614383565b600882019050919050565b60006137f86008836140a0565b9150613803826143ac565b600882019050919050565b600061381b6009836140a0565b9150613826826143d5565b600982019050919050565b600061383e600b836140a0565b9150613849826143fe565b600b82019050919050565b60006138616003836140a0565b915061386c82614427565b600382019050919050565b60006138846008836140a0565b915061388f82614450565b600882019050919050565b60006138a760198361408f565b91506138b282614479565b602082019050919050565b60006138ca6009836140a0565b91506138d5826144a2565b600982019050919050565b60006138ed6004836140a0565b91506138f8826144cb565b600482019050919050565b60006139106007836140a0565b915061391b826144f4565b600782019050919050565b6000613933600b836140a0565b915061393e8261451d565b600b82019050919050565b60006139566007836140a0565b915061396182614546565b600782019050919050565b6000613979600d836140a0565b91506139848261456f565b600d82019050919050565b600061399c6007836140a0565b91506139a782614598565b600782019050919050565b60006139bf60198361408f565b91506139ca826145c1565b602082019050919050565b60006139e26009836140a0565b91506139ed826145ea565b600982019050919050565b6000613a0560188361408f565b9150613a1082614613565b602082019050919050565b6000613a286006836140a0565b9150613a338261463c565b600682019050919050565b6000613a4b6003836140a0565b9150613a5682614665565b600382019050919050565b6000613a6e6003836140a0565b9150613a798261468e565b600382019050919050565b60006080830160008301518482036000860152613aa18282613660565b91505060208301518482036020860152613abb8282613660565b91505060408301518482036040860152613ad58282613660565b9150506060830151613aea6060860182613af5565b508091505092915050565b613afe8161419b565b82525050565b613b0d8161419b565b82525050565b6000613b1f82846136d2565b915081905092915050565b6000613b368284613703565b915081905092915050565b6000613b4c826137c8565b9150819050919050565b6000613b61826137eb565b9150819050919050565b6000613b768261380e565b9150819050919050565b6000613b8b82613831565b9150819050919050565b6000613ba082613854565b9150819050919050565b6000613bb582613877565b9150819050919050565b6000613bca826138bd565b9150819050919050565b6000613bdf826138e0565b9150819050919050565b6000613bf482613903565b9150819050919050565b6000613c0982613926565b9150819050919050565b6000613c1e82613949565b9150819050919050565b6000613c338261396c565b9150819050919050565b6000613c488261398f565b9150819050919050565b6000613c5d826139d5565b9150819050919050565b6000613c7282613a1b565b9150819050919050565b6000613c8782613a3e565b9150819050919050565b6000613c9c82613a61565b9150819050919050565b60006020820190508181036000830152613cc08184613699565b905092915050565b60006040820190508181036000830152613ce28185613699565b90508181036020830152613cf68184613699565b90509392505050565b60006060820190508181036000830152613d198186613699565b90508181036020830152613d2d8185613699565b90508181036040830152613d418184613699565b9050949350505050565b60006020820190508181036000830152613d6481613782565b9050919050565b60006020820190508181036000830152613d84816137a5565b9050919050565b60006020820190508181036000830152613da48161389a565b9050919050565b60006020820190508181036000830152613dc4816139b2565b9050919050565b60006020820190508181036000830152613de4816139f8565b9050919050565b6000602082019050613e006000830184613b04565b92915050565b600061014082019050613e1c600083018d613b04565b613e29602083018c613b04565b613e36604083018b613b04565b8181036060830152613e48818a613699565b90508181036080830152613e5c8189613699565b905081810360a0830152613e708188613699565b9050613e7f60c0830187613b04565b81810360e0830152613e918186613699565b9050818103610100830152613ea68185613699565b9050613eb6610120830184613651565b9b9a5050505050505050505050565b600060e082019050613eda600083018a613b04565b613ee76020830189613b04565b613ef46040830188613b04565b8181036060830152613f068187613a84565b90508181036080830152613f1a8186613699565b905081810360a0830152613f2e8185613699565b9050613f3d60c0830184613651565b98975050505050505050565b600061014082019050613f5f600083018d613b04565b613f6c602083018c613b04565b613f79604083018b613b04565b613f86606083018a613b04565b8181036080830152613f988189613699565b905081810360a0830152613fac8188613699565b905081810360c0830152613fc08187613699565b9050613fcf60e0830186613b04565b818103610100830152613fe28185613699565b9050818103610120830152613ff78184613699565b90509b9a5050505050505050505050565b6000614012614023565b905061401e8282614219565b919050565b6000604051905090565b600067ffffffffffffffff821115614048576140476142f1565b5b61405182614320565b9050602081019050919050565b60008190508160005260206000209050919050565b600081519050919050565b600082825260208201905092915050565b600082825260208201905092915050565b600081905092915050565b60006140b68261419b565b91506140c18361419b565b9250827fffffffffffffffffffffffffffffffffffffffffffffffffffffffffffffffff038211156140f6576140f5614293565b5b828201905092915050565b600061410c8261419b565b91506141178361419b565b9250817fffffffffffffffffffffffffffffffffffffffffffffffffffffffffffffffff04831182151516156141505761414f614293565b5b828202905092915050565b60006141668261419b565b91506141718361419b565b92508282101561418457614183614293565b5b828203905092915050565b60008115159050919050565b6000819050919050565b82818337600083830152505050565b60005b838110156141d25780820151818401526020810190506141b7565b838111156141e1576000848401525b50505050565b600060028204905060018216806141ff57607f821691505b60208210811415614213576142126142c2565b5b50919050565b61422282614320565b810181811067ffffffffffffffff82111715614241576142406142f1565b5b80604052505050565b60006142558261419b565b91507fffffffffffffffffffffffffffffffffffffffffffffffffffffffffffffffff82141561428857614287614293565b5b600182019050919050565b7f4e487b7100000000000000000000000000000000000000000000000000000000600052601160045260246000fd5b7f4e487b7100000000000000000000000000000000000000000000000000000000600052602260045260246000fd5b7f4e487b7100000000000000000000000000000000000000000000000000000000600052604160045260246000fd5b6000601f19601f8301169050919050565b7f496e76616c69642063686172616374657220696e20737472696e670000000000600082015250565b7f506f6c69637920646f6573206e6f742065786973742e00000000000000000000600082015250565b7f6973416374697665000000000000000000000000000000000000000000000000600082015250565b7f636f766572616765000000000000000000000000000000000000000000000000600082015250565b7f636f6c6c6973696f6e0000000000000000000000000000000000000000000000600082015250565b7f76656869636c6554797065000000000000000000000000000000000000000000600082015250565b7f646f620000000000000000000000000000000000000000000000000000000000600082015250565b7f6c6173744e616d65000000000000000000000000000000000000000000000000600082015250565b7f56656869636c6520494420646f6573206e6f7420657869737400000000000000600082015250565b7f6c696162696c6974790000000000000000000000000000000000000000000000600082015250565b7f636f6d7000000000000000000000000000000000000000000000000000000000600082015250565b7f6c6963656e736500000000000000000000000000000000000000000000000000600082015250565b7f6167654c6963656e736564000000000000000000000000000000000000000000600082015250565b7f706f6c5465726d00000000000000000000000000000000000000000000000000600082015250565b7f6566666563746976654461746500000000000000000000000000000000000000600082015250565b7f6d696c6561676500000000000000000000000000000000000000000000000000600082015250565b7f496e737572656420494420646f6573206e6f7420657869737400000000000000600082015250565b7f66697273744e616d650000000000000000000000000000000000000000000000600082015250565b7f44726976657220494420646f6573206e6f742065786973740000000000000000600082015250565b7f4163746976650000000000000000000000000000000000000000000000000000600082015250565b7f76696e0000000000000000000000000000000000000000000000000000000000600082015250565b7f4e2f410000000000000000000000000000000000000000000000000000000000600082015250565b6146c08161419b565b81146146cb57600080fd5b5056fea2646970667358221220cb152feac61d2e05d2de8d0fb4cf4111936e4f2bea060b28af7b8cdeecc768e564736f6c63430008010033",
  "immutableReferences": {},
  "source": "// SPDX-License-Identifier: GPL-3.0\r\npragma solidity >=0.4.22 <0.9.0;\r\n\r\ncontract Insurance {\r\n    uint256 public policyNumber;\r\n    uint256 public insuredIdCounter;\r\n    uint256 public vehicleIdCounter;\r\n    uint256 public driverIdCounter;\r\n\r\n    struct Insured {\r\n        string firstName;\r\n        string lastName;\r\n        string dob;\r\n    }\r\n\r\n    struct Vehicle {\r\n        string vehType;\r\n        string vin;\r\n        string annualMileage;\r\n    }\r\n\r\n    struct Driver {\r\n        string license;\r\n        string ageLicensed;\r\n    }\r\n\r\n    struct Coverage {\r\n        string liability;\r\n        string comprehensive;\r\n        string collision;\r\n        uint256 coverage;\r\n    }\r\n\r\n    struct Policy {\r\n        uint256 insuredId;\r\n        uint256 vehicleId;\r\n        uint256 driverId;\r\n        Coverage coverage;\r\n        string effectiveDate;\r\n        string polTerm;\r\n        bool isActive;\r\n    }\r\n\r\n    mapping(uint256 => Insured) public insured;\r\n    mapping(uint256 => Vehicle) public vehicles;\r\n    mapping(uint256 => Driver) public drivers;\r\n    mapping(uint256 => Policy) public policies;\r\n    mapping(string => string) public polDetails;\r\n\r\n    event PolicyCreated(\r\n        uint256 policyNumber,\r\n        uint256 insuredId,\r\n        uint256 vehicleId,\r\n        uint256 driverId,\r\n        string liability,\r\n        string comprehensive,\r\n        string collision,\r\n        uint256 coverage,\r\n        string effectiveDate,\r\n        string polTerm\r\n    );\r\n\r\n    event InsuredCreated(string firstName, string lastName, string dob);\r\n\r\n    constructor() {\r\n        policyNumber = 999999;\r\n        insuredIdCounter = 0;\r\n        vehicleIdCounter = 0;\r\n        driverIdCounter = 0;\r\n    }\r\n\r\n    function createInsured(\r\n        string memory _firstName,\r\n        string memory _lastName,\r\n        string memory _dob\r\n    ) external returns (uint256) {\r\n        insuredIdCounter++;\r\n        insured[insuredIdCounter] = Insured(_firstName, _lastName, _dob);\r\n        emit InsuredCreated(_firstName, _lastName, _dob);\r\n        return insuredIdCounter;\r\n    }\r\n\r\n    function createVehicle(\r\n        string memory _vType,\r\n        string memory _vin,\r\n        string memory _mileage\r\n    ) external returns (uint256) {\r\n        vehicleIdCounter++;\r\n        vehicles[vehicleIdCounter] = Vehicle(_vType, _vin, _mileage);\r\n        return vehicleIdCounter;\r\n    }\r\n\r\n    function createDriver(\r\n        string memory _licenseNum,\r\n        string memory _ageLicensed\r\n    ) external returns (uint256) {\r\n        driverIdCounter++;\r\n        drivers[driverIdCounter] = Driver(_licenseNum, _ageLicensed);\r\n        return driverIdCounter;\r\n    }\r\n\r\n    function createPolicy(\r\n        uint256 _insuredId,\r\n        uint256 _vehicleId,\r\n        uint256 _driverId,\r\n        string memory _liability,\r\n        string memory _comprehensive,\r\n        string memory _collision,\r\n        uint256 _coverage,\r\n        string memory _effectiveDate,\r\n        string memory _polterm\r\n    ) external returns (uint256) {\r\n        policyNumber++;\r\n\r\n        policies[policyNumber] = Policy(\r\n            _insuredId,\r\n            _vehicleId,\r\n            _driverId,\r\n            Coverage(_liability, _comprehensive, _collision, _coverage),\r\n            _effectiveDate,\r\n            _polterm,\r\n            true\r\n        );\r\n\r\n        emit PolicyCreated(\r\n            policyNumber,\r\n            _insuredId,\r\n            _vehicleId,\r\n            _driverId,\r\n            _liability,\r\n            _comprehensive,\r\n            _collision,\r\n            _coverage,\r\n            _effectiveDate,\r\n            _polterm\r\n        );\r\n\r\n        return policyNumber;\r\n    }\r\n\r\n    function getPolicy(\r\n        uint256 _policyNumber\r\n    )\r\n        external\r\n        view\r\n        returns (\r\n            uint256 insuredId,\r\n            uint256 vehicleId,\r\n            uint256 driverId,\r\n            string memory liability,\r\n            string memory comprehensive,\r\n            string memory collision,\r\n            uint256 coverage,\r\n            string memory effectiveDate,\r\n            string memory polTerm,\r\n            bool isActive\r\n        )\r\n    {\r\n        Policy storage policy = policies[_policyNumber];\r\n        require(\r\n            bytes(policy.coverage.liability).length > 0,\r\n            \"Policy does not exist.\"\r\n        );\r\n\r\n        insuredId = policy.insuredId;\r\n        vehicleId = policy.vehicleId;\r\n        driverId = policy.driverId;\r\n        liability = policy.coverage.liability;\r\n        comprehensive = policy.coverage.comprehensive;\r\n        collision = policy.coverage.collision;\r\n        coverage = policy.coverage.coverage;\r\n        effectiveDate = policy.effectiveDate;\r\n        polTerm = policy.polTerm;\r\n        isActive = policy.isActive;\r\n    }\r\n\r\n    function getInsured(\r\n        uint256 insuredId\r\n    )\r\n        external\r\n        view\r\n        returns (\r\n            string memory firstName,\r\n            string memory lastName,\r\n            string memory dob\r\n        )\r\n    {\r\n        Insured storage insuredDetails = insured[insuredId];\r\n        require(\r\n            bytes(insuredDetails.dob).length > 0,\r\n            \"Insured ID does not exist\"\r\n        );\r\n        firstName = insuredDetails.firstName;\r\n        lastName = insuredDetails.lastName;\r\n        dob = insuredDetails.dob;\r\n    }\r\n\r\n    function getVehicleDetails(\r\n        uint256 vehicleId\r\n    )\r\n        external\r\n        view\r\n        returns (\r\n            string memory vehType,\r\n            string memory vin,\r\n            string memory mileage\r\n        )\r\n    {\r\n        Vehicle storage vehicleDetails = vehicles[vehicleId];\r\n        require(\r\n            bytes(vehicleDetails.vin).length > 0,\r\n            \"Vehicle ID does not exist\"\r\n        );\r\n        vehType = vehicleDetails.vehType;\r\n        vin = vehicleDetails.vin;\r\n        mileage = vehicleDetails.annualMileage;\r\n    }\r\n\r\n    function getDriverDetails(\r\n        uint256 driverId\r\n    )\r\n        external\r\n        view\r\n        returns (string memory licenseNum, string memory ageLicensed)\r\n    {\r\n        Driver storage driverDetails = drivers[driverId];\r\n        require(\r\n            bytes(driverDetails.license).length > 0,\r\n            \"Driver ID does not exist\"\r\n        );\r\n        licenseNum = driverDetails.license;\r\n        ageLicensed = driverDetails.ageLicensed;\r\n    }\r\n\r\n    string public testReturn;\r\n\r\n    function modifyPolicy(\r\n        uint256 _policyNumber,\r\n        string memory _modifyData\r\n    ) external {\r\n        Policy storage policy = policies[_policyNumber];\r\n        require(\r\n            bytes(policy.coverage.liability).length > 0,\r\n            \"Policy does not exist.\"\r\n        );\r\n        string[] memory splitedData = split(_modifyData, \",\");\r\n        for (uint256 i = 0; i < splitedData.length; i++) {\r\n            string[] memory keyValue = split(splitedData[i], \":\");\r\n            polDetails[keyValue[0]] = keyValue[1];\r\n        }\r\n        Insured storage insuredDetails = insured[policy.insuredId];\r\n        Vehicle storage vehicleDetails = vehicles[policy.vehicleId];\r\n        Driver storage driverDetails = drivers[policy.driverId];\r\n\r\n        if (\r\n            keccak256(abi.encodePacked(polDetails[\"firstName\"])) !=\r\n            keccak256(abi.encodePacked(\"N/A\"))\r\n        ) {\r\n            insuredDetails.firstName = polDetails[\"firstName\"];\r\n        }\r\n        if (\r\n            keccak256(abi.encodePacked(polDetails[\"lastName\"])) !=\r\n            keccak256(abi.encodePacked(\"N/A\"))\r\n        ) {\r\n            insuredDetails.lastName = polDetails[\"lastName\"];\r\n        }\r\n        if (\r\n            keccak256(abi.encodePacked(polDetails[\"dob\"])) !=\r\n            keccak256(abi.encodePacked(\"N/A\"))\r\n        ) {\r\n            insuredDetails.dob = polDetails[\"dob\"];\r\n        }\r\n\r\n        if (\r\n            keccak256(abi.encodePacked(polDetails[\"vehicleType\"])) !=\r\n            keccak256(abi.encodePacked(\"N/A\"))\r\n        ) {\r\n            vehicleDetails.vehType = polDetails[\"vehicleType\"];\r\n        }\r\n        if (\r\n            keccak256(abi.encodePacked(polDetails[\"vin\"])) !=\r\n            keccak256(abi.encodePacked(\"N/A\"))\r\n        ) {\r\n            vehicleDetails.vin = polDetails[\"vin\"];\r\n        }\r\n        if (\r\n            keccak256(abi.encodePacked(polDetails[\"mileage\"])) !=\r\n            keccak256(abi.encodePacked(\"N/A\"))\r\n        ) {\r\n            vehicleDetails.annualMileage = polDetails[\"mileage\"];\r\n        }\r\n\r\n        if (\r\n            keccak256(abi.encodePacked(polDetails[\"license\"])) !=\r\n            keccak256(abi.encodePacked(\"N/A\"))\r\n        ) {\r\n            driverDetails.license = polDetails[\"license\"];\r\n        }\r\n        if (\r\n            keccak256(abi.encodePacked(polDetails[\"ageLicensed\"])) !=\r\n            keccak256(abi.encodePacked(\"N/A\"))\r\n        ) {\r\n            driverDetails.ageLicensed = polDetails[\"ageLicensed\"];\r\n        }\r\n\r\n        string memory effdate = polDetails[\"effectiveDate\"];\r\n        string memory polTerm = polDetails[\"polTerm\"];\r\n        if (\r\n            keccak256(abi.encodePacked(effdate)) !=\r\n            keccak256(abi.encodePacked(\"N/A\"))\r\n        ) {\r\n            policy.effectiveDate = effdate;\r\n        }\r\n        if (\r\n            keccak256(abi.encodePacked(polTerm)) !=\r\n            keccak256(abi.encodePacked(\"N/A\"))\r\n        ) {\r\n            policy.polTerm = polTerm;\r\n        }\r\n\r\n        string memory liability = polDetails[\"liability\"];\r\n        string memory comp = polDetails[\"comp\"];\r\n        string memory collision = polDetails[\"collision\"];\r\n        string memory coverage = polDetails[\"coverage\"];\r\n        if (\r\n            keccak256(abi.encodePacked(liability)) !=\r\n            keccak256(abi.encodePacked(\"N/A\"))\r\n        ) {\r\n            policy.coverage.liability = liability;\r\n        }\r\n        if (\r\n            keccak256(abi.encodePacked(comp)) !=\r\n            keccak256(abi.encodePacked(\"N/A\"))\r\n        ) {\r\n            policy.coverage.comprehensive = comp;\r\n        }\r\n        if (\r\n            keccak256(abi.encodePacked(collision)) !=\r\n            keccak256(abi.encodePacked(\"N/A\"))\r\n        ) {\r\n            policy.coverage.collision = collision;\r\n        }\r\n        if (\r\n            keccak256(abi.encodePacked(coverage)) !=\r\n            keccak256(abi.encodePacked(\"N/A\"))\r\n        ) {\r\n            policy.coverage.coverage = stringToUint(coverage);\r\n        }\r\n\r\n        string memory isActiveStr = polDetails[\"isActive\"];\r\n        if (\r\n            keccak256(abi.encodePacked(isActiveStr)) !=\r\n            keccak256(abi.encodePacked(\"N/A\"))\r\n        ) {\r\n            if (\r\n                keccak256(abi.encodePacked(isActiveStr)) !=\r\n                keccak256(abi.encodePacked(\"Active\"))\r\n            ) {\r\n                policy.isActive = false;\r\n            } else {\r\n                policy.isActive = true;\r\n            }\r\n        }\r\n    }\r\n\r\n    function stringToUint(string memory str) public pure returns (uint256) {\r\n        bytes memory b = bytes(str);\r\n        uint256 result = 0;\r\n        for (uint256 i = 0; i < b.length; i++) {\r\n            require(\r\n                uint8(b[i]) >= uint8(bytes1(\"0\")) &&\r\n                    uint8(b[i]) <= uint8(bytes1(\"9\")),\r\n                \"Invalid character in string\"\r\n            );\r\n            result =\r\n                result *\r\n                10 +\r\n                (uint256(uint8(b[i])) - uint256(uint8(bytes1(\"0\"))));\r\n        }\r\n        return result;\r\n    }\r\n\r\n    function substring(\r\n        string memory str,\r\n        uint256 start,\r\n        uint256 end\r\n    ) internal pure returns (string memory) {\r\n        bytes memory s = bytes(str);\r\n        bytes memory result = new bytes(end - start + 1);\r\n        for (uint256 i = 0; i <= end - start; i++) {\r\n            result[i] = s[i + start];\r\n        }\r\n        return string(result);\r\n    }\r\n\r\n    function split(\r\n        string memory str,\r\n        string memory delimiter\r\n    ) internal pure returns (string[] memory) {\r\n        bytes memory strBytes = bytes(str);\r\n        bytes memory delimiterBytes = bytes(delimiter);\r\n\r\n        uint256 partsCount = 1;\r\n\r\n        for (uint256 i = 0; i < strBytes.length; i++) {\r\n            if (strBytes[i] == delimiterBytes[0]) {\r\n                partsCount++;\r\n            }\r\n        }\r\n\r\n        string[] memory parts = new string[](partsCount);\r\n\r\n        uint256 startIndex = 0;\r\n        uint256 partIndex = 0;\r\n\r\n        for (uint256 i = 0; i < strBytes.length; i++) {\r\n            if (strBytes[i] == delimiterBytes[0]) {\r\n                parts[partIndex] = substring(str, startIndex, i - 1);\r\n                startIndex = i + 1;\r\n                partIndex++;\r\n            }\r\n        }\r\n\r\n        parts[partIndex] = substring(str, startIndex, strBytes.length - 1);\r\n\r\n        return parts;\r\n    }\r\n}\r\n",
  "sourcePath": "C:\\Users\\cjp20\\OneDrive\\Desktop\\New folder (2)\\truffleContract\\my_truffle_project\\contracts\\Insurance.sol",
  "compiler": {
    "name": "solc",
    "version": "0.8.1+commit.df193b15.Emscripten.clang"
  },
  "schemaVersion": "3.4.16",
  "updatedAt": "2023-10-02T17:52:12.864Z",
  "networkType": "ethereum",
  "devdoc": {
    "kind": "dev",
    "methods": {},
    "version": 1
  },
  "userdoc": {
    "kind": "user",
    "methods": {},
    "version": 1
  }
}